{"abi":[{"type":"constructor","inputs":[{"name":"identity_","type":"address","internalType":"contract Identity"},{"name":"dust_","type":"address","internalType":"contract DustToken"}],"stateMutability":"nonpayable"},{"type":"function","name":"commentReward","inputs":[],"outputs":[{"name":"","type":"uint256","internalType":"uint256"}],"stateMutability":"view"},{"type":"function","name":"dust","inputs":[],"outputs":[{"name":"","type":"address","internalType":"contract DustToken"}],"stateMutability":"view"},{"type":"function","name":"identity","inputs":[],"outputs":[{"name":"","type":"address","internalType":"contract Identity"}],"stateMutability":"view"},{"type":"function","name":"likeReward","inputs":[],"outputs":[{"name":"","type":"uint256","internalType":"uint256"}],"stateMutability":"view"},{"type":"function","name":"repostReward","inputs":[],"outputs":[{"name":"","type":"uint256","internalType":"uint256"}],"stateMutability":"view"},{"type":"function","name":"rewardJob","inputs":[{"name":"user","type":"address","internalType":"address"},{"name":"rating","type":"uint8","internalType":"uint8"}],"outputs":[],"stateMutability":"nonpayable"},{"type":"function","name":"rewardSocial","inputs":[{"name":"user","type":"address","internalType":"address"},{"name":"actionType","type":"uint8","internalType":"uint8"}],"outputs":[],"stateMutability":"nonpayable"}],"bytecode":{"object":"0x6080604052670de0b6b3a76400006002556729a2241af62c0000600355670de0b6b3a7640000600455348015610033575f5ffd5b50604051610a68380380610a6883398181016040528101906100559190610185565b815f5f6101000a81548173ffffffffffffffffffffffffffffffffffffffff021916908373ffffffffffffffffffffffffffffffffffffffff1602179055508060015f6101000a81548173ffffffffffffffffffffffffffffffffffffffff021916908373ffffffffffffffffffffffffffffffffffffffff16021790555050506101c3565b5f5ffd5b5f73ffffffffffffffffffffffffffffffffffffffff82169050919050565b5f610108826100df565b9050919050565b5f610119826100fe565b9050919050565b6101298161010f565b8114610133575f5ffd5b50565b5f8151905061014481610120565b92915050565b5f610154826100fe565b9050919050565b6101648161014a565b811461016e575f5ffd5b50565b5f8151905061017f8161015b565b92915050565b5f5f6040838503121561019b5761019a6100db565b5b5f6101a885828601610136565b92505060206101b985828601610171565b9150509250929050565b610898806101d05f395ff3fe608060405234801561000f575f5ffd5b506004361061007b575f3560e01c806394bf0e0b1161005957806394bf0e0b146100d7578063a8f7f7b7146100f5578063db20b93714610113578063fad9aba31461012f5761007b565b806314b264081461007f5780632c159a1a1461009b57806380cb371c146100b9575b5f5ffd5b61009960048036038101906100949190610652565b61014d565b005b6100a36103c4565b6040516100b091906106eb565b60405180910390f35b6100c16103e8565b6040516100ce919061071c565b60405180910390f35b6100df6103ee565b6040516100ec919061071c565b60405180910390f35b6100fd6103f4565b60405161010a919061071c565b60405180910390f35b61012d60048036038101906101289190610652565b6103fa565b005b610137610599565b6040516101449190610755565b60405180910390f35b60018160ff1610158015610165575060058160ff1611155b6101a4576040517f08c379a000000000000000000000000000000000000000000000000000000000815260040161019b906107c8565b60405180910390fd5b5f60058260ff16146102105760048260ff16146102005760038260ff16146101f05760028260ff16146101e0576801158e460913d000006101eb565b6802b5e3af16b18800005b6101fb565b68056bc75e2d631000005b61020b565b680821ab0d44149800005b61021b565b680ad78ebc5ac62000005b68ffffffffffffffffff1690505f5f9054906101000a900473ffffffffffffffffffffffffffffffffffffffff1673ffffffffffffffffffffffffffffffffffffffff1663c44f8dec84836040518363ffffffff1660e01b81526004016102839291906107f5565b5f604051808303815f87803b15801561029a575f5ffd5b505af11580156102ac573d5f5f3e3d5ffd5b505050505f5f9054906101000a900473ffffffffffffffffffffffffffffffffffffffff1673ffffffffffffffffffffffffffffffffffffffff16630eb4031b846040518263ffffffff1660e01b8152600401610309919061081c565b5f604051808303815f87803b158015610320575f5ffd5b505af1158015610332573d5f5f3e3d5ffd5b5050505060015f9054906101000a900473ffffffffffffffffffffffffffffffffffffffff1673ffffffffffffffffffffffffffffffffffffffff166340c10f1984836040518363ffffffff1660e01b81526004016103929291906107f5565b5f604051808303815f87803b1580156103a9575f5ffd5b505af11580156103bb573d5f5f3e3d5ffd5b50505050505050565b5f5f9054906101000a900473ffffffffffffffffffffffffffffffffffffffff1681565b60035481565b60025481565b60045481565b5f8160ff16600281111561041157610410610835565b5b90505f5f600281111561042757610426610835565b5b82600281111561043a57610439610835565b5b1461047c576001600281111561045357610452610835565b5b82600281111561046657610465610835565b5b1461047357600454610477565b6003545b610480565b6002545b90505f5f9054906101000a900473ffffffffffffffffffffffffffffffffffffffff1673ffffffffffffffffffffffffffffffffffffffff1663c44f8dec85836040518363ffffffff1660e01b81526004016104dd9291906107f5565b5f604051808303815f87803b1580156104f4575f5ffd5b505af1158015610506573d5f5f3e3d5ffd5b5050505060015f9054906101000a900473ffffffffffffffffffffffffffffffffffffffff1673ffffffffffffffffffffffffffffffffffffffff166340c10f1985836040518363ffffffff1660e01b81526004016105669291906107f5565b5f604051808303815f87803b15801561057d575f5ffd5b505af115801561058f573d5f5f3e3d5ffd5b5050505050505050565b60015f9054906101000a900473ffffffffffffffffffffffffffffffffffffffff1681565b5f5ffd5b5f73ffffffffffffffffffffffffffffffffffffffff82169050919050565b5f6105eb826105c2565b9050919050565b6105fb816105e1565b8114610605575f5ffd5b50565b5f81359050610616816105f2565b92915050565b5f60ff82169050919050565b6106318161061c565b811461063b575f5ffd5b50565b5f8135905061064c81610628565b92915050565b5f5f60408385031215610668576106676105be565b5b5f61067585828601610608565b92505060206106868582860161063e565b9150509250929050565b5f819050919050565b5f6106b36106ae6106a9846105c2565b610690565b6105c2565b9050919050565b5f6106c482610699565b9050919050565b5f6106d5826106ba565b9050919050565b6106e5816106cb565b82525050565b5f6020820190506106fe5f8301846106dc565b92915050565b5f819050919050565b61071681610704565b82525050565b5f60208201905061072f5f83018461070d565b92915050565b5f61073f826106ba565b9050919050565b61074f81610735565b82525050565b5f6020820190506107685f830184610746565b92915050565b5f82825260208201905092915050565b7f696e76616c696420726174696e670000000000000000000000000000000000005f82015250565b5f6107b2600e8361076e565b91506107bd8261077e565b602082019050919050565b5f6020820190508181035f8301526107df816107a6565b9050919050565b6107ef816105e1565b82525050565b5f6040820190506108085f8301856107e6565b610815602083018461070d565b9392505050565b5f60208201905061082f5f8301846107e6565b92915050565b7f4e487b71000000000000000000000000000000000000000000000000000000005f52602160045260245ffdfea264697066735822122096e65337d7e91d6a22f27075672680ca10d1bfcaa39e92a2dffb627a6843f66364736f6c634300081e0033","linkReferences":{}},"methodIdentifiers":{"commentReward()":"80cb371c","dust()":"fad9aba3","identity()":"2c159a1a","likeReward()":"94bf0e0b","repostReward()":"a8f7f7b7","rewardJob(address,uint8)":"14b26408","rewardSocial(address,uint8)":"db20b937"},"id":27}