{"abi":[{"type":"function","name":"addJobCompleted","inputs":[{"name":"user","type":"address","internalType":"address"}],"outputs":[],"stateMutability":"nonpayable"},{"type":"function","name":"addPost","inputs":[{"name":"user","type":"address","internalType":"address"}],"outputs":[],"stateMutability":"nonpayable"},{"type":"function","name":"addReputation","inputs":[{"name":"user","type":"address","internalType":"address"},{"name":"delta","type":"uint256","internalType":"uint256"}],"outputs":[],"stateMutability":"nonpayable"},{"type":"function","name":"addTrust","inputs":[{"name":"user","type":"address","internalType":"address"},{"name":"delta","type":"uint256","internalType":"uint256"}],"outputs":[],"stateMutability":"nonpayable"},{"type":"function","name":"setTier","inputs":[{"name":"user","type":"address","internalType":"address"},{"name":"tier","type":"uint256","internalType":"uint256"}],"outputs":[],"stateMutability":"nonpayable"},{"type":"function","name":"users","inputs":[{"name":"","type":"address","internalType":"address"}],"outputs":[{"name":"trustScore","type":"uint256","internalType":"uint256"},{"name":"tier","type":"uint256","internalType":"uint256"},{"name":"reputation","type":"uint256","internalType":"uint256"},{"name":"posts","type":"uint256","internalType":"uint256"},{"name":"jobsCompleted","type":"uint256","internalType":"uint256"},{"name":"hasBadge","type":"bool","internalType":"bool"}],"stateMutability":"view"}],"bytecode":{"object":"0x6080604052348015600e575f5ffd5b506105828061001c5f395ff3fe608060405234801561000f575f5ffd5b5060043610610060575f3560e01c80630eb4031b146100645780633ff7544214610080578063a87430ba1461009c578063a914adce146100d1578063c44f8dec146100ed578063e24f831314610109575b5f5ffd5b61007e600480360381019061007991906103c8565b610125565b005b61009a600480360381019061009591906103c8565b61017e565b005b6100b660048036038101906100b191906103c8565b6101d7565b6040516100c896959493929190610425565b60405180910390f35b6100eb60048036038101906100e691906104ae565b61021a565b005b610107600480360381019061010291906104ae565b6102b9565b005b610123600480360381019061011e91906104ae565b610311565b005b60015f5f8373ffffffffffffffffffffffffffffffffffffffff1673ffffffffffffffffffffffffffffffffffffffff1681526020019081526020015f206004015f8282546101749190610519565b9250508190555050565b60015f5f8373ffffffffffffffffffffffffffffffffffffffff1673ffffffffffffffffffffffffffffffffffffffff1681526020019081526020015f206003015f8282546101cd9190610519565b9250508190555050565b5f602052805f5260405f205f91509050805f015490806001015490806002015490806003015490806004015490806005015f9054906101000a900460ff16905086565b805f5f8473ffffffffffffffffffffffffffffffffffffffff1673ffffffffffffffffffffffffffffffffffffffff1681526020019081526020015f206001018190555060015f5f8473ffffffffffffffffffffffffffffffffffffffff1673ffffffffffffffffffffffffffffffffffffffff1681526020019081526020015f206005015f6101000a81548160ff0219169083151502179055505050565b805f5f8473ffffffffffffffffffffffffffffffffffffffff1673ffffffffffffffffffffffffffffffffffffffff1681526020019081526020015f205f015f8282546103069190610519565b925050819055505050565b805f5f8473ffffffffffffffffffffffffffffffffffffffff1673ffffffffffffffffffffffffffffffffffffffff1681526020019081526020015f206002015f82825461035f9190610519565b925050819055505050565b5f5ffd5b5f73ffffffffffffffffffffffffffffffffffffffff82169050919050565b5f6103978261036e565b9050919050565b6103a78161038d565b81146103b1575f5ffd5b50565b5f813590506103c28161039e565b92915050565b5f602082840312156103dd576103dc61036a565b5b5f6103ea848285016103b4565b91505092915050565b5f819050919050565b610405816103f3565b82525050565b5f8115159050919050565b61041f8161040b565b82525050565b5f60c0820190506104385f8301896103fc565b61044560208301886103fc565b61045260408301876103fc565b61045f60608301866103fc565b61046c60808301856103fc565b61047960a0830184610416565b979650505050505050565b61048d816103f3565b8114610497575f5ffd5b50565b5f813590506104a881610484565b92915050565b5f5f604083850312156104c4576104c361036a565b5b5f6104d1858286016103b4565b92505060206104e28582860161049a565b9150509250929050565b7f4e487b71000000000000000000000000000000000000000000000000000000005f52601160045260245ffd5b5f610523826103f3565b915061052e836103f3565b9250828201905080821115610546576105456104ec565b5b9291505056fea2646970667358221220f23558275acdbc316e0f933c3f822f80fd08fc2409f838009722c22777499b0464736f6c634300081e0033","linkReferences":{}},"methodIdentifiers":{"addJobCompleted(address)":"0eb4031b","addPost(address)":"3ff75442","addReputation(address,uint256)":"e24f8313","addTrust(address,uint256)":"c44f8dec","setTier(address,uint256)":"a914adce","users(address)":"a87430ba"},"id":30}