{"abi":[{"type":"constructor","inputs":[{"name":"identity_","type":"address","internalType":"contract Identity"}],"stateMutability":"nonpayable"},{"type":"function","name":"identity","inputs":[],"outputs":[{"name":"","type":"address","internalType":"contract Identity"}],"stateMutability":"view"},{"type":"function","name":"setVerifiers","inputs":[{"name":"score","type":"address","internalType":"address"},{"name":"tier","type":"address","internalType":"address"}],"outputs":[],"stateMutability":"nonpayable"},{"type":"function","name":"tierVerifier","inputs":[],"outputs":[{"name":"","type":"address","internalType":"contract IExternalVerifier"}],"stateMutability":"view"},{"type":"function","name":"trustScoreVerifier","inputs":[],"outputs":[{"name":"","type":"address","internalType":"contract IExternalVerifier"}],"stateMutability":"view"},{"type":"function","name":"verifyTier","inputs":[{"name":"proof","type":"bytes","internalType":"bytes"},{"name":"tier","type":"uint256","internalType":"uint256"},{"name":"trustScore","type":"uint256","internalType":"uint256"}],"outputs":[{"name":"","type":"bool","internalType":"bool"}],"stateMutability":"nonpayable"},{"type":"function","name":"verifyTrustScore","inputs":[{"name":"proof","type":"bytes","internalType":"bytes"},{"name":"minScore","type":"uint256","internalType":"uint256"}],"outputs":[{"name":"","type":"bool","internalType":"bool"}],"stateMutability":"view"},{"type":"error","name":"InvalidState","inputs":[]}],"bytecode":{"object":"0x608060405234801561000f575f5ffd5b50604051610d0a380380610d0a833981810160405281019061003191906100e5565b805f5f6101000a81548173ffffffffffffffffffffffffffffffffffffffff021916908373ffffffffffffffffffffffffffffffffffffffff16021790555050610110565b5f5ffd5b5f73ffffffffffffffffffffffffffffffffffffffff82169050919050565b5f6100a38261007a565b9050919050565b5f6100b482610099565b9050919050565b6100c4816100aa565b81146100ce575f5ffd5b50565b5f815190506100df816100bb565b92915050565b5f602082840312156100fa576100f9610076565b5b5f610107848285016100d1565b91505092915050565b610bed8061011d5f395ff3fe608060405234801561000f575f5ffd5b5060043610610060575f3560e01c8063193952a1146100645780632c159a1a1461008257806368ab9060146100a05780637c154d40146100d0578063a54b41cd146100ec578063b18841411461011c575b5f5ffd5b61006c61013a565b604051610079919061070a565b60405180910390f35b61008a61015f565b6040516100979190610743565b60405180910390f35b6100ba60048036038101906100b591906107f8565b610183565b6040516100c7919061086f565b60405180910390f35b6100ea60048036038101906100e591906108c3565b610359565b005b61010660048036038101906101019190610901565b6103dd565b604051610113919061086f565b60405180910390f35b61012461066b565b604051610131919061070a565b60405180910390f35b60025f9054906101000a900473ffffffffffffffffffffffffffffffffffffffff1681565b5f5f9054906101000a900473ffffffffffffffffffffffffffffffffffffffff1681565b5f5f600267ffffffffffffffff8111156101a05761019f610972565b5b6040519080825280602002602001820160405280156101ce5781602001602082028036833780820191505090505b5090503373ffffffffffffffffffffffffffffffffffffffff165f1b815f815181106101fd576101fc61099f565b5b602002602001018181525050825f1b816001815181106102205761021f61099f565b5b6020026020010181815250505f73ffffffffffffffffffffffffffffffffffffffff1660015f9054906101000a900473ffffffffffffffffffffffffffffffffffffffff1673ffffffffffffffffffffffffffffffffffffffff16036102b2576040517fbaf3f0f700000000000000000000000000000000000000000000000000000000815260040160405180910390fd5b60015f9054906101000a900473ffffffffffffffffffffffffffffffffffffffff1673ffffffffffffffffffffffffffffffffffffffff1663ea50d0e48686846040518463ffffffff1660e01b815260040161031093929190610ae6565b602060405180830381865afa15801561032b573d5f5f3e3d5ffd5b505050506040513d601f19601f8201168201806040525081019061034f9190610b47565b9150509392505050565b8160015f6101000a81548173ffffffffffffffffffffffffffffffffffffffff021916908373ffffffffffffffffffffffffffffffffffffffff1602179055508060025f6101000a81548173ffffffffffffffffffffffffffffffffffffffff021916908373ffffffffffffffffffffffffffffffffffffffff1602179055505050565b5f5f600367ffffffffffffffff8111156103fa576103f9610972565b5b6040519080825280602002602001820160405280156104285781602001602082028036833780820191505090505b5090503373ffffffffffffffffffffffffffffffffffffffff165f1b815f815181106104575761045661099f565b5b602002602001018181525050835f1b8160018151811061047a5761047961099f565b5b602002602001018181525050825f1b8160028151811061049d5761049c61099f565b5b6020026020010181815250505f73ffffffffffffffffffffffffffffffffffffffff1660025f9054906101000a900473ffffffffffffffffffffffffffffffffffffffff1673ffffffffffffffffffffffffffffffffffffffff160361052f576040517fbaf3f0f700000000000000000000000000000000000000000000000000000000815260040160405180910390fd5b5f60025f9054906101000a900473ffffffffffffffffffffffffffffffffffffffff1673ffffffffffffffffffffffffffffffffffffffff1663ea50d0e48888856040518463ffffffff1660e01b815260040161058e93929190610ae6565b602060405180830381865afa1580156105a9573d5f5f3e3d5ffd5b505050506040513d601f19601f820116820180604052508101906105cd9190610b47565b9050801561065e575f5f9054906101000a900473ffffffffffffffffffffffffffffffffffffffff1673ffffffffffffffffffffffffffffffffffffffff1663a914adce33876040518363ffffffff1660e01b8152600401610630929190610b90565b5f604051808303815f87803b158015610647575f5ffd5b505af1158015610659573d5f5f3e3d5ffd5b505050505b8092505050949350505050565b60015f9054906101000a900473ffffffffffffffffffffffffffffffffffffffff1681565b5f73ffffffffffffffffffffffffffffffffffffffff82169050919050565b5f819050919050565b5f6106d26106cd6106c884610690565b6106af565b610690565b9050919050565b5f6106e3826106b8565b9050919050565b5f6106f4826106d9565b9050919050565b610704816106ea565b82525050565b5f60208201905061071d5f8301846106fb565b92915050565b5f61072d826106d9565b9050919050565b61073d81610723565b82525050565b5f6020820190506107565f830184610734565b92915050565b5f5ffd5b5f5ffd5b5f5ffd5b5f5ffd5b5f5ffd5b5f5f83601f84011261078557610784610764565b5b8235905067ffffffffffffffff8111156107a2576107a1610768565b5b6020830191508360018202830111156107be576107bd61076c565b5b9250929050565b5f819050919050565b6107d7816107c5565b81146107e1575f5ffd5b50565b5f813590506107f2816107ce565b92915050565b5f5f5f6040848603121561080f5761080e61075c565b5b5f84013567ffffffffffffffff81111561082c5761082b610760565b5b61083886828701610770565b9350935050602061084b868287016107e4565b9150509250925092565b5f8115159050919050565b61086981610855565b82525050565b5f6020820190506108825f830184610860565b92915050565b5f61089282610690565b9050919050565b6108a281610888565b81146108ac575f5ffd5b50565b5f813590506108bd81610899565b92915050565b5f5f604083850312156108d9576108d861075c565b5b5f6108e6858286016108af565b92505060206108f7858286016108af565b9150509250929050565b5f5f5f5f606085870312156109195761091861075c565b5b5f85013567ffffffffffffffff81111561093657610935610760565b5b61094287828801610770565b94509450506020610955878288016107e4565b9250506040610966878288016107e4565b91505092959194509250565b7f4e487b71000000000000000000000000000000000000000000000000000000005f52604160045260245ffd5b7f4e487b71000000000000000000000000000000000000000000000000000000005f52603260045260245ffd5b5f82825260208201905092915050565b828183375f83830152505050565b5f601f19601f8301169050919050565b5f610a0583856109cc565b9350610a128385846109dc565b610a1b836109ea565b840190509392505050565b5f81519050919050565b5f82825260208201905092915050565b5f819050602082019050919050565b5f819050919050565b610a6181610a4f565b82525050565b5f610a728383610a58565b60208301905092915050565b5f602082019050919050565b5f610a9482610a26565b610a9e8185610a30565b9350610aa983610a40565b805f5b83811015610ad9578151610ac08882610a67565b9750610acb83610a7e565b925050600181019050610aac565b5085935050505092915050565b5f6040820190508181035f830152610aff8185876109fa565b90508181036020830152610b138184610a8a565b9050949350505050565b610b2681610855565b8114610b30575f5ffd5b50565b5f81519050610b4181610b1d565b92915050565b5f60208284031215610b5c57610b5b61075c565b5b5f610b6984828501610b33565b91505092915050565b610b7b81610888565b82525050565b610b8a816107c5565b82525050565b5f604082019050610ba35f830185610b72565b610bb06020830184610b81565b939250505056fea2646970667358221220a32353a6d0b4ba67158ec71fd68d72dbc7b4c79aa43c9c13c42e70ee00688d1764736f6c634300081e0033","linkReferences":{}},"methodIdentifiers":{"identity()":"2c159a1a","setVerifiers(address,address)":"7c154d40","tierVerifier()":"193952a1","trustScoreVerifier()":"b1884141","verifyTier(bytes,uint256,uint256)":"a54b41cd","verifyTrustScore(bytes,uint256)":"68ab9060"},"id":33}