{"abi":[{"type":"constructor","inputs":[{"name":"identity_","type":"address","internalType":"contract Identity"},{"name":"dust_","type":"address","internalType":"contract DustToken"}],"stateMutability":"nonpayable"},{"type":"function","name":"POST_FEE","inputs":[],"outputs":[{"name":"","type":"uint256","internalType":"uint256"}],"stateMutability":"view"},{"type":"function","name":"dust","inputs":[],"outputs":[{"name":"","type":"address","internalType":"contract DustToken"}],"stateMutability":"view"},{"type":"function","name":"identity","inputs":[],"outputs":[{"name":"","type":"address","internalType":"contract Identity"}],"stateMutability":"view"},{"type":"function","name":"mintPost","inputs":[{"name":"","type":"string","internalType":"string"}],"outputs":[],"stateMutability":"nonpayable"}],"bytecode":{"object":"0x608060405234801561000f575f5ffd5b5060405161062738038061062783398181016040528101906100319190610161565b815f5f6101000a81548173ffffffffffffffffffffffffffffffffffffffff021916908373ffffffffffffffffffffffffffffffffffffffff1602179055508060015f6101000a81548173ffffffffffffffffffffffffffffffffffffffff021916908373ffffffffffffffffffffffffffffffffffffffff160217905550505061019f565b5f5ffd5b5f73ffffffffffffffffffffffffffffffffffffffff82169050919050565b5f6100e4826100bb565b9050919050565b5f6100f5826100da565b9050919050565b610105816100eb565b811461010f575f5ffd5b50565b5f81519050610120816100fc565b92915050565b5f610130826100da565b9050919050565b61014081610126565b811461014a575f5ffd5b50565b5f8151905061015b81610137565b92915050565b5f5f60408385031215610177576101766100b7565b5b5f61018485828601610112565b92505060206101958582860161014d565b9150509250929050565b61047b806101ac5f395ff3fe608060405234801561000f575f5ffd5b506004361061004a575f3560e01c80632c159a1a1461004e57806392ca31861461006c578063a21deac714610088578063fad9aba3146100a6575b5f5ffd5b6100566100c4565b60405161006391906102ae565b60405180910390f35b61008660048036038101906100819190610330565b6100e8565b005b610090610203565b60405161009d9190610393565b60405180910390f35b6100ae61020f565b6040516100bb91906103cc565b60405180910390f35b5f5f9054906101000a900473ffffffffffffffffffffffffffffffffffffffff1681565b60015f9054906101000a900473ffffffffffffffffffffffffffffffffffffffff1673ffffffffffffffffffffffffffffffffffffffff16639dc29fac33678ac7230489e800006040518363ffffffff1660e01b815260040161014c929190610405565b5f604051808303815f87803b158015610163575f5ffd5b505af1158015610175573d5f5f3e3d5ffd5b505050505f5f9054906101000a900473ffffffffffffffffffffffffffffffffffffffff1673ffffffffffffffffffffffffffffffffffffffff16633ff75442336040518263ffffffff1660e01b81526004016101d2919061042c565b5f604051808303815f87803b1580156101e9575f5ffd5b505af11580156101fb573d5f5f3e3d5ffd5b505050505050565b678ac7230489e8000081565b60015f9054906101000a900473ffffffffffffffffffffffffffffffffffffffff1681565b5f73ffffffffffffffffffffffffffffffffffffffff82169050919050565b5f819050919050565b5f61027661027161026c84610234565b610253565b610234565b9050919050565b5f6102878261025c565b9050919050565b5f6102988261027d565b9050919050565b6102a88161028e565b82525050565b5f6020820190506102c15f83018461029f565b92915050565b5f5ffd5b5f5ffd5b5f5ffd5b5f5ffd5b5f5ffd5b5f5f83601f8401126102f0576102ef6102cf565b5b8235905067ffffffffffffffff81111561030d5761030c6102d3565b5b602083019150836001820283011115610329576103286102d7565b5b9250929050565b5f5f60208385031215610346576103456102c7565b5b5f83013567ffffffffffffffff811115610363576103626102cb565b5b61036f858286016102db565b92509250509250929050565b5f819050919050565b61038d8161037b565b82525050565b5f6020820190506103a65f830184610384565b92915050565b5f6103b68261027d565b9050919050565b6103c6816103ac565b82525050565b5f6020820190506103df5f8301846103bd565b92915050565b5f6103ef82610234565b9050919050565b6103ff816103e5565b82525050565b5f6040820190506104185f8301856103f6565b6104256020830184610384565b9392505050565b5f60208201905061043f5f8301846103f6565b9291505056fea264697066735822122062e308c6fc2d2527f13514da9c42484ec23744c8ef65b96e39d8df062969cc6f64736f6c634300081e0033","linkReferences":{}},"methodIdentifiers":{"POST_FEE()":"a21deac7","dust()":"fad9aba3","identity()":"2c159a1a","mintPost(string)":"92ca3186"},"id":26}