{"abi":[{"type":"constructor","inputs":[{"name":"identity_","type":"address","internalType":"contract Identity"},{"name":"dust_","type":"address","internalType":"contract DustToken"},{"name":"core_","type":"address","internalType":"contract Core"}],"stateMutability":"nonpayable"},{"type":"function","name":"JOB_FEE","inputs":[],"outputs":[{"name":"","type":"uint256","internalType":"uint256"}],"stateMutability":"view"},{"type":"function","name":"applyJob","inputs":[{"name":"jobId","type":"uint256","internalType":"uint256"}],"outputs":[],"stateMutability":"view"},{"type":"function","name":"approveJob","inputs":[{"name":"jobId","type":"uint256","internalType":"uint256"},{"name":"rating","type":"uint8","internalType":"uint8"}],"outputs":[],"stateMutability":"nonpayable"},{"type":"function","name":"assignWorker","inputs":[{"name":"jobId","type":"uint256","internalType":"uint256"},{"name":"worker","type":"address","internalType":"address"}],"outputs":[],"stateMutability":"nonpayable"},{"type":"function","name":"cancelJob","inputs":[{"name":"jobId","type":"uint256","internalType":"uint256"}],"outputs":[],"stateMutability":"nonpayable"},{"type":"function","name":"core","inputs":[],"outputs":[{"name":"","type":"address","internalType":"contract Core"}],"stateMutability":"view"},{"type":"function","name":"createJob","inputs":[{"name":"minScore","type":"uint256","internalType":"uint256"}],"outputs":[{"name":"jobId","type":"uint256","internalType":"uint256"}],"stateMutability":"nonpayable"},{"type":"function","name":"dust","inputs":[],"outputs":[{"name":"","type":"address","internalType":"contract DustToken"}],"stateMutability":"view"},{"type":"function","name":"identity","inputs":[],"outputs":[{"name":"","type":"address","internalType":"contract Identity"}],"stateMutability":"view"},{"type":"function","name":"jobs","inputs":[{"name":"","type":"uint256","internalType":"uint256"}],"outputs":[{"name":"id","type":"uint256","internalType":"uint256"},{"name":"poster","type":"address","internalType":"address"},{"name":"worker","type":"address","internalType":"address"},{"name":"minScore","type":"uint256","internalType":"uint256"},{"name":"rating","type":"uint8","internalType":"uint8"},{"name":"status","type":"uint8","internalType":"enum SharedTypes.JobStatus"}],"stateMutability":"view"},{"type":"function","name":"nextJobId","inputs":[],"outputs":[{"name":"","type":"uint256","internalType":"uint256"}],"stateMutability":"view"},{"type":"error","name":"InvalidInput","inputs":[]},{"type":"error","name":"InvalidState","inputs":[]},{"type":"error","name":"Unauthorized","inputs":[]}],"bytecode":{"object":"0x60806040526001600355348015610014575f5ffd5b506040516111fa3803806111fa833981810160405281019061003691906101e2565b825f5f6101000a81548173ffffffffffffffffffffffffffffffffffffffff021916908373ffffffffffffffffffffffffffffffffffffffff1602179055508160015f6101000a81548173ffffffffffffffffffffffffffffffffffffffff021916908373ffffffffffffffffffffffffffffffffffffffff1602179055508060025f6101000a81548173ffffffffffffffffffffffffffffffffffffffff021916908373ffffffffffffffffffffffffffffffffffffffff160217905550505050610232565b5f5ffd5b5f73ffffffffffffffffffffffffffffffffffffffff82169050919050565b5f61012a82610101565b9050919050565b5f61013b82610120565b9050919050565b61014b81610131565b8114610155575f5ffd5b50565b5f8151905061016681610142565b92915050565b5f61017682610120565b9050919050565b6101868161016c565b8114610190575f5ffd5b50565b5f815190506101a18161017d565b92915050565b5f6101b182610120565b9050919050565b6101c1816101a7565b81146101cb575f5ffd5b50565b5f815190506101dc816101b8565b92915050565b5f5f5f606084860312156101f9576101f86100fd565b5b5f61020686828701610158565b935050602061021786828701610193565b9250506040610228868287016101ce565b9150509250925092565b610fbb8061023f5f395ff3fe608060405234801561000f575f5ffd5b50600436106100a7575f3560e01c806395ed9cb71161006f57806395ed9cb714610152578063b0c2aa5e1461016e578063b56f2c451461018c578063f2f4eb26146101aa578063f4b1d376146101c8578063fad9aba3146101f8576100a7565b8063180aedf3146100ab5780631dffa3dc146100e05780632ad6ee43146100fc5780632c159a1a146101185780637464a25b14610136575b5f5ffd5b6100c560048036038101906100c09190610b8e565b610216565b6040516100d796959493929190610c95565b60405180910390f35b6100fa60048036038101906100f59190610b8e565b6102a5565b005b61011660048036038101906101119190610b8e565b6103e0565b005b6101206104a2565b60405161012d9190610d4f565b60405180910390f35b610150600480360381019061014b9190610d92565b6104c6565b005b61016c60048036038101906101679190610dfa565b610617565b005b6101766108a3565b6040516101839190610e38565b60405180910390f35b6101946108a9565b6040516101a19190610e38565b60405180910390f35b6101b26108b5565b6040516101bf9190610e71565b60405180910390f35b6101e260048036038101906101dd9190610b8e565b6108da565b6040516101ef9190610e38565b60405180910390f35b610200610b32565b60405161020d9190610eaa565b60405180910390f35b6004602052805f5260405f205f91509050805f015490806001015f9054906101000a900473ffffffffffffffffffffffffffffffffffffffff1690806002015f9054906101000a900473ffffffffffffffffffffffffffffffffffffffff1690806003015490806004015f9054906101000a900460ff16908060040160019054906101000a900460ff16905086565b5f60045f8381526020019081526020015f2090503373ffffffffffffffffffffffffffffffffffffffff16816001015f9054906101000a900473ffffffffffffffffffffffffffffffffffffffff1673ffffffffffffffffffffffffffffffffffffffff1614610341576040517f82b4290000000000000000000000000000000000000000000000000000000000815260040160405180910390fd5b5f600281111561035457610353610c22565b5b8160040160019054906101000a900460ff16600281111561037857610377610c22565b5b146103af576040517fbaf3f0f700000000000000000000000000000000000000000000000000000000815260040160405180910390fd5b60028160040160016101000a81548160ff021916908360028111156103d7576103d6610c22565b5b02179055505050565b5f60045f8381526020019081526020015f2090505f815f015403610430576040517fbaf3f0f700000000000000000000000000000000000000000000000000000000815260040160405180910390fd5b5f600281111561044357610442610c22565b5b8160040160019054906101000a900460ff16600281111561046757610466610c22565b5b1461049e576040517fbaf3f0f700000000000000000000000000000000000000000000000000000000815260040160405180910390fd5b5050565b5f5f9054906101000a900473ffffffffffffffffffffffffffffffffffffffff1681565b5f60045f8481526020019081526020015f2090503373ffffffffffffffffffffffffffffffffffffffff16816001015f9054906101000a900473ffffffffffffffffffffffffffffffffffffffff1673ffffffffffffffffffffffffffffffffffffffff1614610562576040517f82b4290000000000000000000000000000000000000000000000000000000000815260040160405180910390fd5b5f600281111561057557610574610c22565b5b8160040160019054906101000a900460ff16600281111561059957610598610c22565b5b146105d0576040517fbaf3f0f700000000000000000000000000000000000000000000000000000000815260040160405180910390fd5b81816002015f6101000a81548173ffffffffffffffffffffffffffffffffffffffff021916908373ffffffffffffffffffffffffffffffffffffffff160217905550505050565b5f60045f8481526020019081526020015f2090503373ffffffffffffffffffffffffffffffffffffffff16816001015f9054906101000a900473ffffffffffffffffffffffffffffffffffffffff1673ffffffffffffffffffffffffffffffffffffffff16146106b3576040517f82b4290000000000000000000000000000000000000000000000000000000000815260040160405180910390fd5b5f60028111156106c6576106c5610c22565b5b8160040160019054906101000a900460ff1660028111156106ea576106e9610c22565b5b14610721576040517fbaf3f0f700000000000000000000000000000000000000000000000000000000815260040160405180910390fd5b5f73ffffffffffffffffffffffffffffffffffffffff16816002015f9054906101000a900473ffffffffffffffffffffffffffffffffffffffff1673ffffffffffffffffffffffffffffffffffffffff16036107a9576040517fbaf3f0f700000000000000000000000000000000000000000000000000000000815260040160405180910390fd5b60018160040160016101000a81548160ff021916908360028111156107d1576107d0610c22565b5b021790555081816004015f6101000a81548160ff021916908360ff16021790555060025f9054906101000a900473ffffffffffffffffffffffffffffffffffffffff1673ffffffffffffffffffffffffffffffffffffffff166314b26408826002015f9054906101000a900473ffffffffffffffffffffffffffffffffffffffff16846040518363ffffffff1660e01b8152600401610871929190610ec3565b5f604051808303815f87803b158015610888575f5ffd5b505af115801561089a573d5f5f3e3d5ffd5b50505050505050565b60035481565b678ac7230489e8000081565b60025f9054906101000a900473ffffffffffffffffffffffffffffffffffffffff1681565b5f5f8203610914576040517fb4fa3fb300000000000000000000000000000000000000000000000000000000815260040160405180910390fd5b60015f9054906101000a900473ffffffffffffffffffffffffffffffffffffffff1673ffffffffffffffffffffffffffffffffffffffff16639dc29fac33678ac7230489e800006040518363ffffffff1660e01b8152600401610978929190610eea565b5f604051808303815f87803b15801561098f575f5ffd5b505af11580156109a1573d5f5f3e3d5ffd5b5050505060035f8154809291906109b790610f3e565b9190505590506040518060c001604052808281526020013373ffffffffffffffffffffffffffffffffffffffff1681526020015f73ffffffffffffffffffffffffffffffffffffffff1681526020018381526020015f60ff1681526020015f6002811115610a2857610a27610c22565b5b81525060045f8381526020019081526020015f205f820151815f01556020820151816001015f6101000a81548173ffffffffffffffffffffffffffffffffffffffff021916908373ffffffffffffffffffffffffffffffffffffffff1602179055506040820151816002015f6101000a81548173ffffffffffffffffffffffffffffffffffffffff021916908373ffffffffffffffffffffffffffffffffffffffff160217905550606082015181600301556080820151816004015f6101000a81548160ff021916908360ff16021790555060a08201518160040160016101000a81548160ff02191690836002811115610b2557610b24610c22565b5b0217905550905050919050565b60015f9054906101000a900473ffffffffffffffffffffffffffffffffffffffff1681565b5f5ffd5b5f819050919050565b610b6d81610b5b565b8114610b77575f5ffd5b50565b5f81359050610b8881610b64565b92915050565b5f60208284031215610ba357610ba2610b57565b5b5f610bb084828501610b7a565b91505092915050565b610bc281610b5b565b82525050565b5f73ffffffffffffffffffffffffffffffffffffffff82169050919050565b5f610bf182610bc8565b9050919050565b610c0181610be7565b82525050565b5f60ff82169050919050565b610c1c81610c07565b82525050565b7f4e487b71000000000000000000000000000000000000000000000000000000005f52602160045260245ffd5b60038110610c6057610c5f610c22565b5b50565b5f819050610c7082610c4f565b919050565b5f610c7f82610c63565b9050919050565b610c8f81610c75565b82525050565b5f60c082019050610ca85f830189610bb9565b610cb56020830188610bf8565b610cc26040830187610bf8565b610ccf6060830186610bb9565b610cdc6080830185610c13565b610ce960a0830184610c86565b979650505050505050565b5f819050919050565b5f610d17610d12610d0d84610bc8565b610cf4565b610bc8565b9050919050565b5f610d2882610cfd565b9050919050565b5f610d3982610d1e565b9050919050565b610d4981610d2f565b82525050565b5f602082019050610d625f830184610d40565b92915050565b610d7181610be7565b8114610d7b575f5ffd5b50565b5f81359050610d8c81610d68565b92915050565b5f5f60408385031215610da857610da7610b57565b5b5f610db585828601610b7a565b9250506020610dc685828601610d7e565b9150509250929050565b610dd981610c07565b8114610de3575f5ffd5b50565b5f81359050610df481610dd0565b92915050565b5f5f60408385031215610e1057610e0f610b57565b5b5f610e1d85828601610b7a565b9250506020610e2e85828601610de6565b9150509250929050565b5f602082019050610e4b5f830184610bb9565b92915050565b5f610e5b82610d1e565b9050919050565b610e6b81610e51565b82525050565b5f602082019050610e845f830184610e62565b92915050565b5f610e9482610d1e565b9050919050565b610ea481610e8a565b82525050565b5f602082019050610ebd5f830184610e9b565b92915050565b5f604082019050610ed65f830185610bf8565b610ee36020830184610c13565b9392505050565b5f604082019050610efd5f830185610bf8565b610f0a6020830184610bb9565b9392505050565b7f4e487b71000000000000000000000000000000000000000000000000000000005f52601160045260245ffd5b5f610f4882610b5b565b91507fffffffffffffffffffffffffffffffffffffffffffffffffffffffffffffffff8203610f7a57610f79610f11565b5b60018201905091905056fea2646970667358221220fd9bca2978eb68cab58c861795a9ce8fc2a7492a57c7d6c7ae92b8407d3c731a64736f6c634300081e0033","linkReferences":{}},"methodIdentifiers":{"JOB_FEE()":"b56f2c45","applyJob(uint256)":"2ad6ee43","approveJob(uint256,uint8)":"95ed9cb7","assignWorker(uint256,address)":"7464a25b","cancelJob(uint256)":"1dffa3dc","core()":"f2f4eb26","createJob(uint256)":"f4b1d376","dust()":"fad9aba3","identity()":"2c159a1a","jobs(uint256)":"180aedf3","nextJobId()":"b0c2aa5e"},"id":31}