{"abi":[{"type":"constructor","inputs":[{"name":"name_","type":"string","internalType":"string"},{"name":"symbol_","type":"string","internalType":"string"},{"name":"owner_","type":"address","internalType":"address"}],"stateMutability":"nonpayable"},{"type":"function","name":"allowance","inputs":[{"name":"owner","type":"address","internalType":"address"},{"name":"spender","type":"address","internalType":"address"}],"outputs":[{"name":"","type":"uint256","internalType":"uint256"}],"stateMutability":"view"},{"type":"function","name":"approve","inputs":[{"name":"spender","type":"address","internalType":"address"},{"name":"value","type":"uint256","internalType":"uint256"}],"outputs":[{"name":"","type":"bool","internalType":"bool"}],"stateMutability":"nonpayable"},{"type":"function","name":"balanceOf","inputs":[{"name":"account","type":"address","internalType":"address"}],"outputs":[{"name":"","type":"uint256","internalType":"uint256"}],"stateMutability":"view"},{"type":"function","name":"burn","inputs":[{"name":"from","type":"address","internalType":"address"},{"name":"amount","type":"uint256","internalType":"uint256"}],"outputs":[],"stateMutability":"nonpayable"},{"type":"function","name":"decimals","inputs":[],"outputs":[{"name":"","type":"uint8","internalType":"uint8"}],"stateMutability":"view"},{"type":"function","name":"mint","inputs":[{"name":"to","type":"address","internalType":"address"},{"name":"amount","type":"uint256","internalType":"uint256"}],"outputs":[],"stateMutability":"nonpayable"},{"type":"function","name":"name","inputs":[],"outputs":[{"name":"","type":"string","internalType":"string"}],"stateMutability":"view"},{"type":"function","name":"roles","inputs":[{"name":"","type":"address","internalType":"address"}],"outputs":[{"name":"","type":"uint8","internalType":"enum DustToken.Role"}],"stateMutability":"view"},{"type":"function","name":"setRole","inputs":[{"name":"user","type":"address","internalType":"address"},{"name":"role","type":"uint8","internalType":"enum DustToken.Role"}],"outputs":[],"stateMutability":"nonpayable"},{"type":"function","name":"symbol","inputs":[],"outputs":[{"name":"","type":"string","internalType":"string"}],"stateMutability":"view"},{"type":"function","name":"totalSupply","inputs":[],"outputs":[{"name":"","type":"uint256","internalType":"uint256"}],"stateMutability":"view"},{"type":"function","name":"transfer","inputs":[{"name":"to","type":"address","internalType":"address"},{"name":"value","type":"uint256","internalType":"uint256"}],"outputs":[{"name":"","type":"bool","internalType":"bool"}],"stateMutability":"nonpayable"},{"type":"function","name":"transferFrom","inputs":[{"name":"from","type":"address","internalType":"address"},{"name":"to","type":"address","internalType":"address"},{"name":"value","type":"uint256","internalType":"uint256"}],"outputs":[{"name":"","type":"bool","internalType":"bool"}],"stateMutability":"nonpayable"},{"type":"event","name":"Approval","inputs":[{"name":"owner","type":"address","indexed":true,"internalType":"address"},{"name":"spender","type":"address","indexed":true,"internalType":"address"},{"name":"value","type":"uint256","indexed":false,"internalType":"uint256"}],"anonymous":false},{"type":"event","name":"Transfer","inputs":[{"name":"from","type":"address","indexed":true,"internalType":"address"},{"name":"to","type":"address","indexed":true,"internalType":"address"},{"name":"value","type":"uint256","indexed":false,"internalType":"uint256"}],"anonymous":false},{"type":"error","name":"ERC20InsufficientAllowance","inputs":[{"name":"spender","type":"address","internalType":"address"},{"name":"allowance","type":"uint256","internalType":"uint256"},{"name":"needed","type":"uint256","internalType":"uint256"}]},{"type":"error","name":"ERC20InsufficientBalance","inputs":[{"name":"sender","type":"address","internalType":"address"},{"name":"balance","type":"uint256","internalType":"uint256"},{"name":"needed","type":"uint256","internalType":"uint256"}]},{"type":"error","name":"ERC20InvalidApprover","inputs":[{"name":"approver","type":"address","internalType":"address"}]},{"type":"error","name":"ERC20InvalidReceiver","inputs":[{"name":"receiver","type":"address","internalType":"address"}]},{"type":"error","name":"ERC20InvalidSender","inputs":[{"name":"sender","type":"address","internalType":"address"}]},{"type":"error","name":"ERC20InvalidSpender","inputs":[{"name":"spender","type":"address","internalType":"address"}]},{"type":"error","name":"Unauthorized","inputs":[]},{"type":"error","name":"ZeroAddress","inputs":[]},{"type":"error","name":"ZeroAmount","inputs":[]}],"bytecode":{"object":"0x608060405234801561000f575f5ffd5b50604051611b63380380611b63833981810160405281019061003191906102ce565b828281600390816100429190610566565b5080600490816100529190610566565b5050505f73ffffffffffffffffffffffffffffffffffffffff168173ffffffffffffffffffffffffffffffffffffffff16036100ba576040517fd92e233d00000000000000000000000000000000000000000000000000000000815260040160405180910390fd5b600160055f8373ffffffffffffffffffffffffffffffffffffffff1673ffffffffffffffffffffffffffffffffffffffff1681526020019081526020015f205f6101000a81548160ff0219169083600381111561011a57610119610635565b5b0217905550505050610662565b5f604051905090565b5f5ffd5b5f5ffd5b5f5ffd5b5f5ffd5b5f601f19601f8301169050919050565b7f4e487b71000000000000000000000000000000000000000000000000000000005f52604160045260245ffd5b61018682610140565b810181811067ffffffffffffffff821117156101a5576101a4610150565b5b80604052505050565b5f6101b7610127565b90506101c3828261017d565b919050565b5f67ffffffffffffffff8211156101e2576101e1610150565b5b6101eb82610140565b9050602081019050919050565b8281835e5f83830152505050565b5f610218610213846101c8565b6101ae565b9050828152602081018484840111156102345761023361013c565b5b61023f8482856101f8565b509392505050565b5f82601f83011261025b5761025a610138565b5b815161026b848260208601610206565b91505092915050565b5f73ffffffffffffffffffffffffffffffffffffffff82169050919050565b5f61029d82610274565b9050919050565b6102ad81610293565b81146102b7575f5ffd5b50565b5f815190506102c8816102a4565b92915050565b5f5f5f606084860312156102e5576102e4610130565b5b5f84015167ffffffffffffffff81111561030257610301610134565b5b61030e86828701610247565b935050602084015167ffffffffffffffff81111561032f5761032e610134565b5b61033b86828701610247565b925050604061034c868287016102ba565b9150509250925092565b5f81519050919050565b7f4e487b71000000000000000000000000000000000000000000000000000000005f52602260045260245ffd5b5f60028204905060018216806103a457607f821691505b6020821081036103b7576103b6610360565b5b50919050565b5f819050815f5260205f209050919050565b5f6020601f8301049050919050565b5f82821b905092915050565b5f600883026104197fffffffffffffffffffffffffffffffffffffffffffffffffffffffffffffffff826103de565b61042386836103de565b95508019841693508086168417925050509392505050565b5f819050919050565b5f819050919050565b5f61046761046261045d8461043b565b610444565b61043b565b9050919050565b5f819050919050565b6104808361044d565b61049461048c8261046e565b8484546103ea565b825550505050565b5f5f905090565b6104ab61049c565b6104b6818484610477565b505050565b5b818110156104d9576104ce5f826104a3565b6001810190506104bc565b5050565b601f82111561051e576104ef816103bd565b6104f8846103cf565b81016020851015610507578190505b61051b610513856103cf565b8301826104bb565b50505b505050565b5f82821c905092915050565b5f61053e5f1984600802610523565b1980831691505092915050565b5f610556838361052f565b9150826002028217905092915050565b61056f82610356565b67ffffffffffffffff81111561058857610587610150565b5b610592825461038d565b61059d8282856104dd565b5f60209050601f8311600181146105ce575f84156105bc578287015190505b6105c6858261054b565b86555061062d565b601f1984166105dc866103bd565b5f5b82811015610603578489015182556001820191506020850194506020810190506105de565b86831015610620578489015161061c601f89168261052f565b8355505b6001600288020188555050505b505050505050565b7f4e487b71000000000000000000000000000000000000000000000000000000005f52602160045260245ffd5b6114f48061066f5f395ff3fe608060405234801561000f575f5ffd5b50600436106100cd575f3560e01c8063571c3e601161008a578063993746421161006457806399374642146102115780639dc29fac14610241578063a9059cbb1461025d578063dd62ed3e1461028d576100cd565b8063571c3e60146101a757806370a08231146101c357806395d89b41146101f3576100cd565b806306fdde03146100d1578063095ea7b3146100ef57806318160ddd1461011f57806323b872dd1461013d578063313ce5671461016d57806340c10f191461018b575b5f5ffd5b6100d96102bd565b6040516100e69190611018565b60405180910390f35b610109600480360381019061010491906110c9565b61034d565b6040516101169190611121565b60405180910390f35b61012761036f565b6040516101349190611149565b60405180910390f35b61015760048036038101906101529190611162565b610378565b6040516101649190611121565b60405180910390f35b6101756103a6565b60405161018291906111cd565b60405180910390f35b6101a560048036038101906101a091906110c9565b6103ae565b005b6101c160048036038101906101bc9190611209565b610466565b005b6101dd60048036038101906101d89190611247565b61053f565b6040516101ea9190611149565b60405180910390f35b6101fb610584565b6040516102089190611018565b60405180910390f35b61022b60048036038101906102269190611247565b610614565b60405161023891906112e5565b60405180910390f35b61025b600480360381019061025691906110c9565b610631565b005b610277600480360381019061027291906110c9565b6106e9565b6040516102849190611121565b60405180910390f35b6102a760048036038101906102a291906112fe565b61070b565b6040516102b49190611149565b60405180910390f35b6060600380546102cc90611369565b80601f01602080910402602001604051908101604052809291908181526020018280546102f890611369565b80156103435780601f1061031a57610100808354040283529160200191610343565b820191905f5260205f20905b81548152906001019060200180831161032657829003601f168201915b5050505050905090565b5f5f61035761078d565b9050610364818585610794565b600191505092915050565b5f600254905090565b5f5f61038261078d565b905061038f8582856107a6565b61039a858585610839565b60019150509392505050565b5f6012905090565b60026103b981610929565b5f73ffffffffffffffffffffffffffffffffffffffff168373ffffffffffffffffffffffffffffffffffffffff160361041e576040517fd92e233d00000000000000000000000000000000000000000000000000000000815260040160405180910390fd5b5f8203610457576040517f1f2a200500000000000000000000000000000000000000000000000000000000815260040160405180910390fd5b6104618383610a0a565b505050565b600161047181610929565b5f73ffffffffffffffffffffffffffffffffffffffff168373ffffffffffffffffffffffffffffffffffffffff16036104d6576040517fd92e233d00000000000000000000000000000000000000000000000000000000815260040160405180910390fd5b8160055f8573ffffffffffffffffffffffffffffffffffffffff1673ffffffffffffffffffffffffffffffffffffffff1681526020019081526020015f205f6101000a81548160ff0219169083600381111561053557610534611272565b5b0217905550505050565b5f5f5f8373ffffffffffffffffffffffffffffffffffffffff1673ffffffffffffffffffffffffffffffffffffffff1681526020019081526020015f20549050919050565b60606004805461059390611369565b80601f01602080910402602001604051908101604052809291908181526020018280546105bf90611369565b801561060a5780601f106105e15761010080835404028352916020019161060a565b820191905f5260205f20905b8154815290600101906020018083116105ed57829003601f168201915b5050505050905090565b6005602052805f5260405f205f915054906101000a900460ff1681565b600261063c81610929565b5f73ffffffffffffffffffffffffffffffffffffffff168373ffffffffffffffffffffffffffffffffffffffff16036106a1576040517fd92e233d00000000000000000000000000000000000000000000000000000000815260040160405180910390fd5b5f82036106da576040517f1f2a200500000000000000000000000000000000000000000000000000000000815260040160405180910390fd5b6106e48383610a89565b505050565b5f5f6106f361078d565b9050610700818585610839565b600191505092915050565b5f60015f8473ffffffffffffffffffffffffffffffffffffffff1673ffffffffffffffffffffffffffffffffffffffff1681526020019081526020015f205f8373ffffffffffffffffffffffffffffffffffffffff1673ffffffffffffffffffffffffffffffffffffffff1681526020019081526020015f2054905092915050565b5f33905090565b6107a18383836001610b08565b505050565b5f6107b1848461070b565b90507fffffffffffffffffffffffffffffffffffffffffffffffffffffffffffffffff8110156108335781811015610824578281836040517ffb8f41b200000000000000000000000000000000000000000000000000000000815260040161081b939291906113a8565b60405180910390fd5b61083284848484035f610b08565b5b50505050565b5f73ffffffffffffffffffffffffffffffffffffffff168373ffffffffffffffffffffffffffffffffffffffff16036108a9575f6040517f96c6fd1e0000000000000000000000000000000000000000000000000000000081526004016108a091906113dd565b60405180910390fd5b5f73ffffffffffffffffffffffffffffffffffffffff168273ffffffffffffffffffffffffffffffffffffffff1603610919575f6040517fec442f0500000000000000000000000000000000000000000000000000000000815260040161091091906113dd565b60405180910390fd5b610924838383610cd7565b505050565b5f60055f3373ffffffffffffffffffffffffffffffffffffffff1673ffffffffffffffffffffffffffffffffffffffff1681526020019081526020015f205f9054906101000a900460ff16905081600381111561098957610988611272565b5b81600381111561099c5761099b611272565b5b141580156109cf5750600160038111156109b9576109b8611272565b5b8160038111156109cc576109cb611272565b5b14155b15610a06576040517f82b4290000000000000000000000000000000000000000000000000000000000815260040160405180910390fd5b5050565b5f73ffffffffffffffffffffffffffffffffffffffff168273ffffffffffffffffffffffffffffffffffffffff1603610a7a575f6040517fec442f05000000000000000000000000000000000000000000000000000000008152600401610a7191906113dd565b60405180910390fd5b610a855f8383610cd7565b5050565b5f73ffffffffffffffffffffffffffffffffffffffff168273ffffffffffffffffffffffffffffffffffffffff1603610af9575f6040517f96c6fd1e000000000000000000000000000000000000000000000000000000008152600401610af091906113dd565b60405180910390fd5b610b04825f83610cd7565b5050565b5f73ffffffffffffffffffffffffffffffffffffffff168473ffffffffffffffffffffffffffffffffffffffff1603610b78575f6040517fe602df05000000000000000000000000000000000000000000000000000000008152600401610b6f91906113dd565b60405180910390fd5b5f73ffffffffffffffffffffffffffffffffffffffff168373ffffffffffffffffffffffffffffffffffffffff1603610be8575f6040517f94280d62000000000000000000000000000000000000000000000000000000008152600401610bdf91906113dd565b60405180910390fd5b8160015f8673ffffffffffffffffffffffffffffffffffffffff1673ffffffffffffffffffffffffffffffffffffffff1681526020019081526020015f205f8573ffffffffffffffffffffffffffffffffffffffff1673ffffffffffffffffffffffffffffffffffffffff1681526020019081526020015f20819055508015610cd1578273ffffffffffffffffffffffffffffffffffffffff168473ffffffffffffffffffffffffffffffffffffffff167f8c5be1e5ebec7d5bd14f71427d1e84f3dd0314c0f7b2291e5b200ac8c7c3b92584604051610cc89190611149565b60405180910390a35b50505050565b5f73ffffffffffffffffffffffffffffffffffffffff168373ffffffffffffffffffffffffffffffffffffffff1614158015610d3f57505f73ffffffffffffffffffffffffffffffffffffffff168273ffffffffffffffffffffffffffffffffffffffff1614155b15610d7f576040517f08c379a0000000000000000000000000000000000000000000000000000000008152600401610d7690611440565b60405180910390fd5b610d8a838383610d8f565b505050565b5f73ffffffffffffffffffffffffffffffffffffffff168373ffffffffffffffffffffffffffffffffffffffff1603610ddf578060025f828254610dd3919061148b565b92505081905550610ead565b5f5f5f8573ffffffffffffffffffffffffffffffffffffffff1673ffffffffffffffffffffffffffffffffffffffff1681526020019081526020015f2054905081811015610e68578381836040517fe450d38c000000000000000000000000000000000000000000000000000000008152600401610e5f939291906113a8565b60405180910390fd5b8181035f5f8673ffffffffffffffffffffffffffffffffffffffff1673ffffffffffffffffffffffffffffffffffffffff1681526020019081526020015f2081905550505b5f73ffffffffffffffffffffffffffffffffffffffff168273ffffffffffffffffffffffffffffffffffffffff1603610ef4578060025f8282540392505081905550610f3e565b805f5f8473ffffffffffffffffffffffffffffffffffffffff1673ffffffffffffffffffffffffffffffffffffffff1681526020019081526020015f205f82825401925050819055505b8173ffffffffffffffffffffffffffffffffffffffff168373ffffffffffffffffffffffffffffffffffffffff167fddf252ad1be2c89b69c2b068fc378daa952ba7f163c4a11628f55a4df523b3ef83604051610f9b9190611149565b60405180910390a3505050565b5f81519050919050565b5f82825260208201905092915050565b8281835e5f83830152505050565b5f601f19601f8301169050919050565b5f610fea82610fa8565b610ff48185610fb2565b9350611004818560208601610fc2565b61100d81610fd0565b840191505092915050565b5f6020820190508181035f8301526110308184610fe0565b905092915050565b5f5ffd5b5f73ffffffffffffffffffffffffffffffffffffffff82169050919050565b5f6110658261103c565b9050919050565b6110758161105b565b811461107f575f5ffd5b50565b5f813590506110908161106c565b92915050565b5f819050919050565b6110a881611096565b81146110b2575f5ffd5b50565b5f813590506110c38161109f565b92915050565b5f5f604083850312156110df576110de611038565b5b5f6110ec85828601611082565b92505060206110fd858286016110b5565b9150509250929050565b5f8115159050919050565b61111b81611107565b82525050565b5f6020820190506111345f830184611112565b92915050565b61114381611096565b82525050565b5f60208201905061115c5f83018461113a565b92915050565b5f5f5f6060848603121561117957611178611038565b5b5f61118686828701611082565b935050602061119786828701611082565b92505060406111a8868287016110b5565b9150509250925092565b5f60ff82169050919050565b6111c7816111b2565b82525050565b5f6020820190506111e05f8301846111be565b92915050565b600481106111f2575f5ffd5b50565b5f81359050611203816111e6565b92915050565b5f5f6040838503121561121f5761121e611038565b5b5f61122c85828601611082565b925050602061123d858286016111f5565b9150509250929050565b5f6020828403121561125c5761125b611038565b5b5f61126984828501611082565b91505092915050565b7f4e487b71000000000000000000000000000000000000000000000000000000005f52602160045260245ffd5b600481106112b0576112af611272565b5b50565b5f8190506112c08261129f565b919050565b5f6112cf826112b3565b9050919050565b6112df816112c5565b82525050565b5f6020820190506112f85f8301846112d6565b92915050565b5f5f6040838503121561131457611313611038565b5b5f61132185828601611082565b925050602061133285828601611082565b9150509250929050565b7f4e487b71000000000000000000000000000000000000000000000000000000005f52602260045260245ffd5b5f600282049050600182168061138057607f821691505b6020821081036113935761139261133c565b5b50919050565b6113a28161105b565b82525050565b5f6060820190506113bb5f830186611399565b6113c8602083018561113a565b6113d5604083018461113a565b949350505050565b5f6020820190506113f05f830184611399565b92915050565b7f445553543a204e4f4e205452414e5346455241424c45000000000000000000005f82015250565b5f61142a601683610fb2565b9150611435826113f6565b602082019050919050565b5f6020820190508181035f8301526114578161141e565b9050919050565b7f4e487b71000000000000000000000000000000000000000000000000000000005f52601160045260245ffd5b5f61149582611096565b91506114a083611096565b92508282019050808211156114b8576114b761145e565b5b9291505056fea26469706673582212209b02e84f8572255f635bc12cb41ad7681d090d8648783156ab51c8ab8fa516db64736f6c634300081e0033","linkReferences":{}},"methodIdentifiers":{"allowance(address,address)":"dd62ed3e","approve(address,uint256)":"095ea7b3","balanceOf(address)":"70a08231","burn(address,uint256)":"9dc29fac","decimals()":"313ce567","mint(address,uint256)":"40c10f19","name()":"06fdde03","roles(address)":"99374642","setRole(address,uint8)":"571c3e60","symbol()":"95d89b41","totalSupply()":"18160ddd","transfer(address,uint256)":"a9059cbb","transferFrom(address,address,uint256)":"23b872dd"},"id":28}